:0C1D380053544130313320496E6974006F
:101BD1007F10121D65758E0C758F017F2C7E011291
:101BE1001CC67F807E25121A777F10121D6E121C73
:101BF1000B7BFF7A1D7938E4FDFF12197A121B372E
:0A1C0100121D588F22121D5080F6AC
:101C75008D29EF70077F40121D6080057F40121D82
:101C85006A7F80121D6AAF29121D727F80121D6046
:0A1C95007FFF121D727F40021D6ADE
:031D72008F80223D
:051D6000EFF452B02277
:041D6A00EF42B02272
:101C0B007D38E4FF121C757F017E00121CC67D48D7
:101C1B00E4FF121C757F017E00121CC67D01E4FFE0
:101C2B00121C757F027E00121CC67D0CE4FF121C79
:081C3B00757F017E00021CC64A
:08197A008D238B248A258926A8
:10198200EFF46010EF4480FDE4FF121C757F017ECE
:1019920000121CC6E5237038F527AB24AA25A92618
:1019A200852782F58312132FF528E528604EFD7FE7
:1019B20001121C757F017E00121CC60527AB24AAEA
:1019C20025A92685278275830012132FF52880DA30
:1019D200E4F527E527C395235022AB24AA25A9269F
:1019E20085278275830012132FF528FD7F01121CB3
:0C19F200757F017E00121CC6052780D7FF
:0119FE0022C6
:051D6500EFF452A02282
:041D6E00EF42A0227E
:101B8C002570200025322E32625820004164647288
:101B9C002E202020302020312020322020332020E5
:101BAC0034202035202036202037202038202039A2
:101BBC00202041202042202043202044202045206A
:051BCC0020460A0D0097
:1019FF008B1B8A1C891D8B4C8A4D894E7BFF7A1B52
:101A0F00798C121035E4F51EAB1BAA1CA91D851E7F
:101A1F008275830012132FF51F7BFF7A1B7990F5C8
:101A2F004C121035051EE51EC3941040DBE4F51E65
:101A3F00AB1BAA1CA91D851E8275830012132FF5DF
:101A4F001FC394204007E51FD3947E4003751F2EBC
:101A5F00AF1F121D50051EE51EC3941040D27F0DFF
:081A6F00121D507F0A021D50F8
:0A1AD8008B138A1489158C168D17E4
:101AE2008B188A19891AAE02AF0153070F7E00C301
:101AF200E99FF9EA9E8B18F519891A7BFF7A1B79FF
:101B020098121035AB18AA19A91A1219FF741025C8
:101B12001AF51AE43519F519AB13E5152517F9E588
:101B2200143516FAEB8A838982C3E51A9582E51980
:041B3200958340D087
:011B3600228C
:101CC6005389F0438901C2A9758CF4758A3DC28D8A
:101CD600D28C308DFDC28CEF1F70011ED3EF9400A5
:061CE600EE940050E32221
:101A77008E238F2453873F438780C2AC759852E4E7
:101A8700F59BAE23AF24FCFD7B60FAF9F812137EB9
:101A9700E42FFFE43EFEED342FFDEC340DFCC004D3
:101AA700C005C006C007AE23AF24E4FCFD7BC0FA27
:101AB700F9F812137EA804A905AA06AB07D007D028
:101AC70006D005D004121409EFF404F59A759B1E8D
:011AD70022EC
:081D50003099FD8F99C2992220
:081D58003098FDC298AF9922FA
:100003003A012A04280029002000210022002300AD
:10001300240025002600270028012802218F280319
:100023002100280428052806280728082809280A63
:10003300280B280C20802190280D20002100280E59
:1000430020812191280F20002192281021002811BE
:1000530021932812210028132814281520822816FA
:1000630020002817281828192194281A2195281BBD
:100073002196281C2100281D2083281E2000281FCC
:1000830021972820210028212822282328242825D5
:100093002826282728282829282A2084282B2000B6
:1000A300282C282D282E282F283028312832208547
:1000B3002833200028342835283628372198283833
:1000C30021002839283A283B283C283D283E283F50
:1000D30028402841284228432844284528462847C1
:1000E30028482849284A284B284C284D284E284F71
:1000F3002850285128522853285428552856285721
:1001030028582859285A285B285C285D285E285FD0
:1001130028602861286221992863210028642865C2
:100123002866286728682869286A286B286C286D40
:10013300286E286F287028712872287328742875F0
:100143002876287728782879287A287B287C287DA0
:10015300287E287F28802881288228832884288550
:100163002886288728882889288A288B288C288D00
:10017300288E288F289028912086289220872893DC
:100183002000289428952896289728982899289A13
:10019300289B289C289D289E289F219A28A02100DF
:1001A30028A128A228A328A428A528A628A728A8E8
:1001B30028A928AA28AB28AC28AD28AE28AF28B098
:1001C30028B128B228B328B428B528B628B728B848
:1001D30028B9208828BA200028BB208928BC200001
:1001E30028BD28BE28BF28C028C128C228C3219BF8
:1001F30028C4210028C528C628C728C828C928CA52
:1002030028CB28CC28CD28CE28CF28D028D128D237
:1002130028D328D428D528D628D728D828D928DAE7
:1002230028DB28DC28DD28DE28DF28E028E1208AF7
:1002330028E2208B28E3200028E428E528E628E7A5
:1002430028E828E928EA28EB28EC28ED28EE28EF0F
:1002530028F028F128F228F328F428F528F628F7BF
:1002630028F8208C28F92000219C28FA219D28FBBE
:10027300208D219E28FC208E219F28FD2000210017
:1002830028FE28FF2A012800220123952489250717
:1002930026A42707280121C72200238026C4270C70
:1002A30028022009211C220426AA270A2803200049
:1002B3002100220023A626A02707280428052005BD
:1002C300238426B42709280620002203230024813F
:1002D30025C026AB270A280721AE220023952489AF
:1002E300250726A42700280821482201238026C4A5
:1002F300270C280920092104220426AA270A280AF0
:1003030020002100220023A826A42707280B280C5D
:1003130021402220238026C4270C280D222426C610
:10032300280E219E220026C8280F2009210222140C
:1003330026AA270A2810200521002200238426B498
:1003430027092811200021012300240125C026AB01
:10035300270A281221C3239524892507262027004D
:100363002813200321C223832626270D281421B313
:0E03730022082815200021C62200239526000E
:1003810027082816210023002496250326AA270AD8
:100391002817204221B62380248925072818200008
:1003A10021002394260E2819200F238426B427091F
:1003B100281A2000239326A82703281B2628270074
:1003C100281C21012300240125C026AB270A281D52
:1003D10021C523952489250726202700281E2100D1
:1003E10023942600270A281F260E2820200321797E
:1003F100220123832626270D2821213228222000AD
:10040100210422002380240025FC26AA270A282370
:10041100210023002500282421A3220D2380249ECE
:10042100253B2825204221572201248925072826FA
:1004310020002143220D2400253828272108229855
:100441002395248925072624270028282042219343
:100451002201238026AA270A28292003217E22049B
:1004610023832626270D282A200021B02200239548
:1004710026A02707282B21002300240C250426AAC7
:10048100270A282C21022380248625C326AB282D68
:100491002042219722012489250726AA282E2000FF
:1004A10021002200241F2504282F21B2239524890D
:1004B10025072620270428302042218B220423806F
:1004C10026AA270A2831200021B12200239526A03F
:1004D1002707283220032175220423832626270D8E
:1004E1002833200521002200238426B4270928343B
:1004F100200021602300240125C026AB270A2835CE
:1005010021082298239524892507262427002836A7
:1005110021BC2200283721A3220D2300240125C05C
:1005210026AB270A283821602200238024002538A1
:1005310026AA2839210622982395248925072624CD
:100541002700283A21BE2200283B200521002384D0
:1005510026B42709283C200021602300240125C05E
:1005610026AB270A283D214222012395248925070C
:1005710026242700283E210C229826A42707283F5D
:1005810021082840216022002300240125C026AB38
:10059100270A2841210C22982395248925072624FE
:1005A10027002842200521002200238426B42709A0
:1005B1002843200023802400251026AB270A284445
:1005C1002122220123952489250726242700284555
:1005D1002100220023002404251226AA270A2846E6
:1005E100200321D422052383248925072626270DCC
:1005F10028472000216022002300240125C026ABCA
:10060100270A284821B3239524892507260027088E
:100611002849210023002409250026AA270A284A5F
:10062100210223802486253B284B204221DD2205FF
:1006310024892507284C200021002200241F2500A1
:10064100284D21B323952489250726202700284EEC
:10065100210023002497250326AA270A284F204298
:1006610021E222052380248925072850200021101A
:1006710022002300248025CC26AB285121002240D2
:1006810023B42489250726AA27042852220023B04F
:100691002692270928532114220123952600270891
:1006A1002854214823A4262A270028552100220066
:1006B10023002409250026AA270A28562108238079
:1006C1002486253B2857204221112207248925070A
:1006D1002858200021002200241F25002859211418
:1006E100220123952489250726202700285A21162F
:0E06F10026022709285B210022002300248016
:1006FF00254826AA270A285C23A024892507261423
:10070F002709285D2480255026A42704285E21165A
:10071F0022012395248925072700285F2104220021
:10072F002300249C257826AA270A28602143220D1E
:10073F00240125C426AB2861210322002415286239
:10074F0021002400250026AA2863215E23952489F1
:10075F00250726102709286421032300241525C403
:10076F0026AB270A2865210023802400250626AA08
:10077F002866248F25E326AB2867204221CD220748
:10078F002489250726AA286820002160220023003B
:10079F00240125C026AB286921002380248F25033F
:1007AF0026AA286A204221DD220724892507286BE3
:1007BF0020002143220D2300240125C026AB286CE5
:1007CF00210022002400250426AA286D2003217F62
:1007DF0022012383248925072626270D286E2162CF
:1007EF00286F200521002200238426B427092870B2
:1007FF0020002106239526002708287121012300B8
:10080F002497253B26AA270A28722042210E220868
:10081F0023802489250728732003213C220B23835F
:10082F002626270D28742000210322002395260257
:10083F002708287521272300248125C426AB270AE2
:10084F002876210023802409254826AA28772158B5
:10085F00223423A324892507262A2700287821005C
:10086F00220023A0260027092879210723802403AB
:10087F00253926AA270A287A21042300241C253883
:10088F00287B2107238024832539287C2103239566
:10089F002489250726022708287D21272300248164
:1008AF0025C426AB270A287E21002380240925484A
:1008BF0026AA287F2158223423A324892507262AF4
:1008CF0027002880210622002300248125C026939B
:1008DF0027012881210023802489254826AA270A59
:1008EF0028822002216622082300240025662883FF
:1008FF002000210022002380241F250228842106A6
:10090F002489250726DC270C2885210023AA26AA5F
:10091F00270A288623B626002708288723802486BF
:10092F00253B26AA270A288821052489250726DCA6
:10093F00270C2889210023AA26AA270A288A23B64A
:10094F0026002708288B23802486253B26AA270AE2
:10095F00288C2042217B220824892507288D2000FE
:10096F0021002200230024012582288E21052481C5
:10097F0025C226AB288F20032193220823832489A5
:10098F0025072626270D2890200021052200230069
:10099F00248125C026132701289121002380248933
:1009AF00254826AA270A28922002217E2208230002
:1009BF002400256628932000210022002380241F75
:1009CF002502289421052489250726DC270C289544
:1009DF00210023AA26AA270A289623B6260027082D
:1009EF00289723802486253B26AA270A28982105A5
:1009FF002489250726DC270C2899210023AA26AA5B
:100A0F00270A289A2380241F2502289B21012300CF
:100A1F00248125C226AB289C2003219322082383FF
:100A2F00248925072626270D289D20002104220032
:100A3F00239526122708289E216023C426AA27045F
:100A4F00289F210023C02600270928A0204221CB60
:100A5F002208238026AA270A28A12070215422B811
:0E0A6F0023952612270828A2200221CC220857
:100A7D00238026AA270A28A3200321CA220F238315
:100A8D002626270D28A42000210022002300248CD7
:100A9D00250C26AA270A28A521042482257828A614
:100AAD0021002380248925482612270428A7200306
:100ABD0021DE220F238325072626270D28A82000B7
:100ACD00210122002300249C257826AA270A28A983
:100ADD00210023802481254028AA200321CF220F25
:100AED002383248925072626270D28AB207021086E
:100AFD0022B8239526A0270428AC200321D4220F49
:100B0D0023832626270D28AD2127220B28AE207002
:100B1D00216322B823952612270828AF2000210132
:100B2D0022002380248625CB26AB270A28B020421D
:100B3D0021DD22082489250726AA28B120002118A5
:100B4D002280239526A4270028B2200321D9220F25
:100B5D0023832626270D28B32070210A22B823953A
:100B6D0026A0270028B4200221E02208238026AAEF
:100B7D00270A28B52070210A22B8239526A0270020
:100B8D0028B621542602270828B7200021182280D4
:100B9D0026A4270028B82100220023802480254880
:100BAD0026AA270A28B92070215E22B82395248908
:100BBD0025072612270828BA2000210022002380AD
:100BCD002409254B26AA270A28BB2070215F22B8AD
:100BDD002395248925072610270828BC20002100ED
:100BED0022002300241C258326AB270A28BD2003C1
:100BFD00213222092383248925072626270D28BE85
:100C0D0020002100220023002482258C26AB270AF8
:100C1D0028BF200321252209238324892507262681
:100C2D00270D28C0204221BC238026AA270A28C1CF
:100C3D002000210122002300240125C026AB28C25B
:100C4D002070210F22B823952489250726202700FF
:100C5D0028C3200321E3220F23832626270D28C432
:100C6D00200521002200238426B4270928C5200051
:100C7D00210323952614270828C621A623A4262A56
:100C8D00270528C7210023A02644270928C8211895
:100C9D00226D2380249E257B26AA270A28C920425F
:100CAD002113220B2489250728CA200021AE2200FA
:100CBD0023952624270028CB210022032380248777
:100CCD00257B26AA270A28CC20422116220B24890F
:100CDD00250728CD200021AE2200239526242700AC
:100CED0028CE20052100238426B4270928CF2003F0
:100CFD00210D220B23832626270D28D0200021002D
:100D0D002200230024802602270028D123802409D5
:100D1D002548261E28D22158223423332480250726
:100D2D00262A28D32100220023002680271028D42C
:100D3D0021102363262A270028D52100236026A809
:100D4D00271228D621AF224C230026C8270C28D7DE
:100D5D00210022002680270528D823802486253BC4
:100D6D00261E270028D92042211C220E2300248074
:100D7D00250728DA20002135222926C4270C28DB57
:100D8D002002211D220E261E270028DC2000217F97
:100D9D00223426C4270C28DD210022002390249F15
:100DAD0025042610270A28DE23002484250026800A
:100DBD00271028DF2106236324802507262A2700F4
:100DCD0028E021002380248926AA270A28E120056E
:100DDD00238426B4270928E22070216122B82395A7
:0E0DED002612270828E320002101220023807F
:100DFB00248625C326AB270A28E4204221CE220FC6
:100E0B002489250726AA28E52070215022B823958E
:100E1B002612270828E6200521002200238426B469
:100E2B00270928E72070216422B82395261227086A
:100E3B0028E82000210122002380248625C326AB2D
:100E4B00270A28E9204221D3220F2489250726AA25
:100E5B0028EA2070215122B823952612270828EB67
:100E6B00200521002200238426B4270928EC2070BA
:100E7B00216522B823952612270828ED2000210191
:100E8B0022002380248625C326AB270A28EE204286
:100E9B0021D8220F2489250726AA28EF207021525A
:100EAB0022B823952612270828F0200521002200BE
:100EBB00238426B4270928F12070216122B82395B9
:100ECB002602270828F220002101220023802486F5
:100EDB0025C326AB270A28F3204221DD220F2489C4
:100EEB00250726AA28F42070215022B82395260224
:100EFB00270828F5200521002200238426B4270982
:100F0B0028F6200021012380248625CB26AB270A37
:100F1B0028F7204221E1220F2489250726AA28F849
:100F2B002000210222002300248125C426AB28F9AE
:100F3B00210023802489254826AA28FA200523840A
:100F4B00250726B4270928FB2070214E22B82395AC
:100F5B002610270828FC200021002200238024864D
:100F6B0025C326AB270A28FD204221E7220F24891F
:100F7B00250726AA28FE200021BB22002395262028
:100F8B00270028FF20052100238426B427092A08DF
:100F9B001001FFFFFFFF3A00643A65BB083A09BB3B
:100FAB0050105267517705A11804540155210700C1
:100FBB00060C0B03501051005204610F645565551C
:080FCB0005A11804FFFFFFFF60
:1017BA0052656365697665642041636B2E2E2E0D32
:1017CA000A005265636569766564204E61636B2E13
:1017DA002E2E0D0A0053656E64696E6720616E20B5
:1017EA00696E7465726E616C20616464726573738C
:1017FA0020666F722061207265616400446F6E65B5
:10180A002073656E64696E6720616E20696E746507
:10181A00726E616C206164647265737320666F72A4
:10182A00206120726561640053656E64696E672089
:10183A0064657669636520616464722E0D0A0053DB
:10184A00656E64696E6720446576696365206164C4
:10185A0064722E2E0D0A0044657669636520416420
:10186A0064722E2053656E740D0A0053656E6469A6
:10187A006E6720696E7465726E616C204164647271
:10188A006573732E2E0D0A00496E7465726E616C53
:10189A0020416464726573732053656E742E2E2E14
:1018AA000D0A0053656E64696E67206F6E6520626B
:1018BA007974652E2E2E0D0A0042797465205365BF
:1018CA006E743A3A2025322E326258200D0A0041AF
:1018DA006C6C2062797465732073656E742E2E2E7B
:0318EA000D0A00E4
:101C4300E4FF121CF5C291D290E4FF121CF5D2916D
:101C53003091FDA290920420040C7BFF7A1779BA8D
:101C63001210357F00227BFF7A1779CC1210357F53
:011C7300016F
:011C7400224D
:021679008F2BB5
:10167B00E4F535F536F537F538C200F539C201E535
:10168B0030D3940040317BFF7A1779DF1210358508
:10169B002F3E852E3D852D3C852C3B85303FE4F53B
:1016AB0040F541F542F543AF2B1214FC8F397BFF0C
:1016BB007A187906121035D290D291209103021725
:1016CB00B72090030217B7121D25E52B25E0F53542
:1016DB00433501C290E4F5367BFF7A18793212104C
:1016EB0035753708E4FF121CF5C2911537AF37E596
:1016FB0035A807088002C313D8FC139201A201126C
:10170B001CF1D2913091FDA2909200A20030010108
:10171B00B35003753901E5376004E53960C6121C17
:10172B0043EF60037F0222E531D39400405EE5393D
:10173B00705A753708E4FF121CF5C2911537D29019
:10174B00E53825E0F538E4FF121CF5D2913091FD18
:10175B00A2909200A200E4334238E53770D7AB3247
:10176B00AA33A934853682F583E53812135C053626
:10177B00D53104D2018002C201E4FF121CF5C291E3
:10178B00A201121CF1D29120919D80FBE5396401DD
:10179B00601AE4FF121CF5C291C290E4FF121CF513
:0E17AB00D2913091FD7F01121CF5D290AF3922
:0117B900220D
:091CEC00139203A2039290E4FF9D
:101CF500308E03308FFDC28EEF700A758DFF758BA8
:061D0500C3C28FD28E2242
:101D250053890F438910C2AB758DFF758BC3C28F65
:031D3500D28E2229
:1014FC00E4F544F545F546F547C202F548C203D27A
:10150C0090D2912091030216572090030216571285
:10151C001D25EF25E0F544C290E4F5457546087BA2
:10152C00FF7A187949121035E4FF121CF5C2911597
:10153C0046AF46E544A807088002C313D8FC121C2A
:10154C00ECD2913091FDA2909202A202300301B331
:10155C005003754801E5466004E54860CB7BFF7A93
:10156C00187961121035121C43EF60037F0222E5DB
:10157C003FD394004056754608853E447BFF7A184D
:10158C007975121035E4FF121CF5C2911546AF4661
:10159C00E544A807088002C313D8FC121CECD291B6
:1015AC003091FDA2909202A202300301B350037558
:1015BC004801E5466004E54860CB7BFF7A187992D8
:1015CC00121035121C43EF60037F0222E540D394C6
:1015DC0000406FE548706B7BFF7A1879AD121035BF
:1015EC00754608AB41AA42A9438545827583001212
:1015FC00132FF544E4FF121CF5C2911546AF46E5D6
:10160C0044A807088002C313D8FC121CECD29130FA
:10161C0091FDA2909202A202300301B350037548CF
:10162C0001E5466004E54860CB7BFF7A1879C385F9
:10163C00444C12103515400545121C43EF608D7F4C
:10164C0002227BFF7A1879D9121035E548640160C3
:10165C0019E4FF121CF5C291C290E4121CF5D29150
:0C166C003091FD7F01121CF5D290AF48B8
:01167800224F
:101D0B0052656365697665642056616C7565203D27
:0A1D1B002025322E3262580A0D0016
:101B3700E4F524E4753E01F53DF53CF53B753F01C1
:101B4700F540F5417542007543257F431214FCE4C7
:101B5700F52FF52EF52DF52CF530753101F532758C
:101B670033007534287F431216798F231524E52314
:101B77006004E52470BD7BFF7A1D790B85284C1224
:041B87001035AF2343
:011B8B002237
:0818ED008F088B098A0A890BA0
:1018F500E4F511F512750F32AB09AA0AA90B851289
:101905008285118312132FF50E0512E5127002055B
:1019150011F58285118312132FF50C0512E512704E
:10192500020511E4850E3EF53DF53CF53B753F019D
:10193500754001F54175420075430CAF081214FC62
:101945008F10150FE5106004E50F70D7E4850E2F95
:10195500F52EF52DF52C753001753101F532753300
:101965000075340DAF08121679E50EF46004E50F25
:041975007083AF10BC
:01197900224B
:03000000021D449A
:0C1D4400787FE4F6D8FD75815C021BD1AD
:10132F00BB010CE58229F582E5833AF583E0225073
:10133F0006E92582F8E622BBFE06E92582F8E222BD
:0D134F00E58229F582E5833AF583E49322D7
:10135C00F8BB010DE58229F582E5833AF583E8F0C7
:10136C00225006E92582C8F622BBFE05E92582C873
:02137C00F2225B
:10137E00E88FF0A4CC8BF0A42CFCE98EF0A42CFC0E
:10138E008AF0EDA42CFCEA8EF0A4CDA8F08BF0A48C
:10139E002DCC3825F0FDE98FF0A42CCD35F0FCEBEB
:1013AE008EF0A4FEA9F0EB8FF0A4CFC5F02ECD39B0
:0F13BE00FEE43CFCEAA42DCE35F0FDE43CFC221D
:1013CD0075F008758200EF2FFFEE33FECD33CDCCD7
:1013DD0033CCC58233C5829BED9AEC99E58298405A
:1013ED000CF582EE9BFEED9AFDEC99FC0FD5F0D637
:1013FD00E4CEFBE4CDFAE4CCF9A88222B800C1B961
:10140D000059BA002DEC8BF084CFCECDFCE5F0CB9E
:10141D00F97818EF2FFFEE33FEED33FDEC33FCEBD7
:10142D0033FB10D703994004EB99FB0FD8E5E4F992
:10143D00FA227818EF2FFFEE33FEED33FDEC33FC7F
:10144D00C933C910D7059BE99A4007EC9BFCE99A73
:10145D00F90FD8E0E4C9FAE4CCFB2275F010EF2FB8
:10146D00FFEE33FEED33FDCC33CCC833C810D707B8
:10147D009BEC9AE899400AED9BFDEC9AFCE899F8F3
:0E148D000FD5F0DAE4CDFBE4CCFAE4C8F92286
:100FD300E558244CF8E60558227849300C02784C41
:100FE300E475F0011214C602149B2005EB7F2ED288
:100FF300058018EF540F2490D43440D4FF30090BEC
:10100300EF24BFB41A0050032461FFE559600215B1
:1010130059055CE55C7002055B300C0D7849E4759D
:10102300F0011214C6EF0214B4021C9F7403D20C15
:101033008003E4C20CF5588B498A4A894BE4F5597D
:10104300F55BF55CE55960077F2012100E80F5759E
:101053005AFFC206C205C207C208C20AC20BC20DAA
:10106300120FDCFF700D300C057F0012101FAF5CF8
:10107300AE5B22B4255FC2D5C209120FDCFF24D0B8
:10108300B40A00501A75F00A785930D50508B6FF2E
:101093000106C6A426F620D5047002D20880D924FE
:1010A300CFB41A00EF5004C2E5D20902121FD206D0
:1010B30080C6D20580C0D20780BCD2D580BAD20AFE
:1010C30080B47F2012100E2007077401B559004029
:1010D300F1120FD3FF12100E021047D20DD20B8064
:1010E30095120FD3FB120FD3FA120FD3F94A4B7099
:1010F3000679F07A127BFF20072EE559602A7E00DD
:101103008E8275830012132F60060EEE655A70F0FF
:10111300C2D5EBC0E0EAC0E0E9C0E0EE121266D04F
:10112300E0F9D0E0FAD0E0FB12149BFF60AAEBC019
:10113300E0EAC0E0E9C0E012100ED0E02401F9D0EB
:10114300E03400FAD0E0FBE55A0460DCD55AD980DC
:10115300877BFF7A127962D207809C7910800279AB
:1011630008C20BC20D8008D2D5790A8004790AC25D
:10117300D5E55A047002F55AE4FAFDFEFF120FD3C7
:10118300FC7B08200613120FD3FD7B1030050A12D7
:101193000FD3FE120FD3FF7B20EC3382D592D550B1
:1011A30013C3E43005069FFFE49EFEE42006039D7F
:1011B300FDE49CFCE4CBF8C206EC700CCFCECDCCA6
:1011C300E824F8F870F38017C3EF33FFEE33FEED36
:1011D30033FDEC33FCEB33FB994002FB0FD8E9EB17
:1011E300300605F8D0E0C448B206C0E00AEC4D4E24
:1011F3004F78207B0070C2EAB55A0040BCC0E012B1
:101203001268D0F0D0E0200604C4C0E0C4B206C027
:10121300F0120FF7D0F0D5F0EB0210471214D610EE
:10122300E453115E5810B54C10B14211624F116A6C
:1012330044116A4910CA431170551154461154455B
:1012430011544713105010B92D10BD2E10E02B1060
:10125300C12310DE2012FE2A107948000010D83F67
:101263003F3F00790AA2D5200814300A09B91002B9
:101273000404B9080104A2D5200B0250010420077D
:05128300689207B55957
:10128800005034C0E07F203008197F30A207720B6D
:10129800720A500F1212BFC207C20BC20AC20D7FD8
:1012A80030800F300A03E9C0E012100E300A03D074
:1012B800E0F9D0E0B559CC300A177F30B9100C12DC
:1012C800100E7F583009077F788003B90803121081
:1012D8000E3007057F2D02100E7F20200DF87F2B82
:1012E800200BF322920780CF286E756C6C29002D95
:1012F80050434958D206120FD33006F8C20678591F
:1013080030D50108F6021079120FD32403B4050072
:101318004001E49012F793120FFF743A120FFFD2B4
:071328000875590402115E73
:10149B00BB010689828A83E0225002E722BBFE024F
:0914AB00E32289828A83E4932282
:1014B400BB010689828A83F0225002F722BBFE0117
:0214C400F32211
:1014C600FAE6FB0808E6F925F0F618E6CA3AF62227
:1014D600D083D082F8E4937012740193700DA3A3A5
:1014E60093F8740193F5828883E4737402936860B9
:0614F600EFA3A3A380DFB9
:101C9F00EFB40A07740D121CAA740A309811A89990
:101CAF00B8130CC2983098FDA899C298B811F630A5
:071CBF0099FDC299F599227D
:00000001FF
