:0C1C790053544130313320496E6974002F
:101B21007F10121CA6758E0C758F017F2C7E011201
:101B31001BE47F807E25121A1C7F10121CAF121B22
:101B41005B7BFF7A1C7979E4FDFF1218B91219B693
:0A1B5100121C998F22121C9180F6DD
:101B93008D29EF70077F40121CA180057F40121C26
:101BA300AB7F80121CABAF29121CB37F80121CA128
:0A1BB3007FFF121CB37F40021CAB41
:031CB3008F8022FD
:051CA100EFF452B02237
:041CAB00EF42B02232
:101B5B007D38E4FF121B937F017E00121BE47D484E
:101B6B00E4FF121B937F017E00121BE47D01E4FF57
:101B7B00121B937F027E00121BE47D0CE4FF121BF1
:081B8B00937F017E00021BE4C0
:0818B9008D238B248A2589266A
:1018C100EFF46010EF4480FDE4FF121B937F017E73
:1018D10000121BE4E5237038F527AB24AA25A926BD
:1018E100852782F583121425F528E528604EFD7FB2
:1018F10001121B937F017E00121BE40527AB24AA72
:1019010025A926852782758300121425F52880DAFA
:10191100E4F527E527C395235022AB24AA25A92660
:10192100852782758300121425F528FD7F01121B7E
:0C193100937F017E00121BE4052780D785
:01193D002287
:051CA600EFF452A02242
:041CAF00EF42A0223E
:101ADC002570200025322E32625820004164647239
:101AEC002E20202030202031202032202033202096
:101AFC003420203520203620203720203820203953
:101B0C00202041202042202043202044202045201A
:051B1C0020460A0D0047
:10193E008B1B8A1C891D8B2E8A2F89307BFF7A1A6E
:10194E0079DC121035E4F51EAB1BAA1CA91D851EF1
:10195E0082758300121425F51F7BFF7A1A79E0F544
:10196E002E121035051EE51EC3941040DBE4F51E45
:10197E00AB1BAA1CA91D851E82758300121425F5AA
:10198E001FC394204007E51FD3947E4003751F2E7E
:10199E00AF1F121C91051EE51EC3941040D27F0D81
:0819AE00121C917F0A021C913A
:0A1A7D008B138A1489158C168D173F
:101A87008B188A19891AAE02AF0153070F7E00C35C
:101A9700E99FF9EA9E8B18F519891A7BFF7A1A795B
:101AA700E8121035AB18AA19A91A12193E74102595
:101AB7001AF51AE43519F519AB13E5152517F9E5E4
:101AC700143516FAEB8A838982C3E51A9582E519DC
:041AD700958340D0E3
:011ADB0022E8
:101BE4005389F0438901C2A9758CF4758A3DC28D6D
:101BF400D28C308DFDC28CEF1F70011ED3EF940088
:061C0400EE940050E32203
:101A1C008E238F2453873F438780C2AC759852E442
:101A2C00F59BAE23AF24FCFD7B60FAF9F81214741D
:101A3C00E42FFFE43EFEED342FFDEC340DFCC0042E
:101A4C00C005C006C007AE23AF24E4FCFD7BC0FA82
:101A5C00F9F8121474A804A905AA06AB07D007D08C
:101A6C0006D005D0041214FFEFF404F59A759B1EF2
:011A7C002247
:081C91003099FD8F99C29922E0
:081C99003098FDC298AF9922BA
:100003003A012A04280029002000210022002300AD
:10001300240025002600270028012802218F280319
:100023002100280428052806280728082809280A63
:10003300280B280C20802190280D20002100280E59
:1000430020812191280F20002192281021002811BE
:1000530021932812210028132814281520822816FA
:1000630020002817281828192194281A2195281BBD
:100073002196281C2100281D2083281E2000281FCC
:1000830021972820210028212822282328242825D5
:100093002826282728282829282A2084282B2000B6
:1000A300282C282D282E282F283028312832208547
:1000B3002833200028342835283628372198283833
:1000C30021002839283A283B283C283D283E283F50
:1000D30028402841284228432844284528462847C1
:1000E30028482849284A284B284C284D284E284F71
:1000F3002850285128522853285428552856285721
:1001030028582859285A285B285C285D285E285FD0
:1001130028602861286221992863210028642865C2
:100123002866286728682869286A286B286C286D40
:10013300286E286F287028712872287328742875F0
:100143002876287728782879287A287B287C287DA0
:10015300287E287F28802881288228832884288550
:100163002886288728882889288A288B288C288D00
:10017300288E288F289028912086289220872893DC
:100183002000289428952896289728982899289A13
:10019300289B289C289D289E289F219A28A02100DF
:1001A30028A128A228A328A428A528A628A728A8E8
:1001B30028A928AA28AB28AC28AD28AE28AF28B098
:1001C30028B128B228B328B428B528B628B728B848
:1001D30028B9208828BA200028BB208928BC200001
:1001E30028BD28BE28BF28C028C128C228C3219BF8
:1001F30028C4210028C528C628C728C828C928CA52
:1002030028CB28CC28CD28CE28CF28D028D128D237
:1002130028D328D428D528D628D728D828D928DAE7
:1002230028DB28DC28DD28DE28DF28E028E1208AF7
:1002330028E2208B28E3200028E428E528E628E7A5
:1002430028E828E928EA28EB28EC28ED28EE28EF0F
:1002530028F028F128F228F328F428F528F628F7BF
:1002630028F8208C28F92000219C28FA219D28FBBE
:10027300208D219E28FC208E219F28FD2000210017
:1002830028FE28FF2A012800220123952489250717
:1002930026A42707280121C72200238026C4270C70
:1002A30028022009211C220426AA270A2803200049
:1002B3002100220023A626A02707280428052005BD
:1002C300238426B42709280620002203230024813F
:1002D30025C026AB270A280721AE220023952489AF
:1002E300250726A42700280821482201238026C4A5
:1002F300270C280920092104220426AA270A280AF0
:1003030020002100220023A826A42707280B280C5D
:1003130021402220238026C4270C280D222426C610
:10032300280E219E220026C8280F2009210222140C
:1003330026AA270A2810200521002200238426B498
:1003430027092811200021012300240125C026AB01
:10035300270A281221C3239524892507262027004D
:100363002813200321C223832626270D281421B313
:0E03730022082815200021C62200239526000E
:1003810027082816210023002496250326AA270AD8
:100391002817204221B62380248925072818200008
:1003A10021002394260E2819200F238426B427091F
:1003B100281A2000239326A82703281B2628270074
:1003C100281C21012300240125C026AB270A281D52
:1003D10021C523952489250726202700281E2100D1
:1003E10023942600270A281F260E2820200321797E
:1003F100220123832626270D2821213228222000AD
:10040100210422002380240025FC26AA270A282370
:10041100210023002500282421A3220D2380249ECE
:10042100253B2825204221572201248925072826FA
:1004310020002143220D2400253828272108229855
:100441002395248925072624270028282042219343
:100451002201238026AA270A28292003217E22049B
:1004610023832626270D282A200021B02200239548
:1004710026A02707282B21002300240C250426AAC7
:10048100270A282C21022380248625C326AB282D68
:100491002042219722012489250726AA282E2000FF
:1004A10021002200241F2504282F21B2239524890D
:1004B10025072620270428302042218B220423806F
:1004C10026AA270A2831200021B12200239526A03F
:1004D1002707283220032175220423832626270D8E
:1004E1002833200521002200238426B4270928343B
:1004F100200021602300240125C026AB270A2835CE
:1005010021082298239524892507262427002836A7
:1005110021BC2200283721A3220D2300240125C05C
:1005210026AB270A283821602200238024002538A1
:1005310026AA2839210622982395248925072624CD
:100541002700283A21BE2200283B200521002384D0
:1005510026B42709283C200021602300240125C05E
:1005610026AB270A283D214222012395248925070C
:1005710026242700283E210C229826A42707283F5D
:1005810021082840216022002300240125C026AB38
:10059100270A2841210C22982395248925072624FE
:1005A10027002842200521002200238426B42709A0
:1005B1002843200023802400251026AB270A284445
:1005C1002122220123952489250726242700284555
:1005D1002100220023002404251226AA270A2846E6
:1005E100200321D422052383248925072626270DCC
:1005F10028472000216022002300240125C026ABCA
:10060100270A284821B3239524892507260027088E
:100611002849210023002409250026AA270A284A5F
:10062100210223802486253B284B204221DD2205FF
:1006310024892507284C200021002200241F2500A1
:10064100284D21B323952489250726202700284EEC
:10065100210023002497250326AA270A284F204298
:1006610021E222052380248925072850200021101A
:1006710022002300248025CC26AB285121002240D2
:1006810023B42489250726AA27042852220023B04F
:100691002692270928532114220123952600270891
:1006A1002854214823A4262A270028552100220066
:1006B10023002409250026AA270A28562108238079
:1006C1002486253B2857204221112207248925070A
:1006D1002858200021002200241F25002859211418
:1006E100220123952489250726202700285A21162F
:0E06F10026022709285B210022002300248016
:1006FF00254826AA270A285C23A024892507261423
:10070F002709285D2480255026A42704285E21165A
:10071F0022012395248925072700285F2104220021
:10072F002300249C257826AA270A28602143220D1E
:10073F00240125C426AB2861210322002415286239
:10074F0021002400250026AA2863215E23952489F1
:10075F00250726102709286421032300241525C403
:10076F0026AB270A2865210023802400250626AA08
:10077F002866248F25E326AB2867204221CD220748
:10078F002489250726AA286820002160220023003B
:10079F00240125C026AB286921002380248F25033F
:1007AF0026AA286A204221DD220724892507286BE3
:1007BF0020002143220D2300240125C026AB286CE5
:1007CF00210022002400250426AA286D2003217F62
:1007DF0022012383248925072626270D286E2162CF
:1007EF00286F200521002200238426B427092870B2
:1007FF0020002106239526002708287121012300B8
:10080F002497253B26AA270A28722042210E220868
:10081F0023802489250728732003213C220B23835F
:10082F002626270D28742000210322002395260257
:10083F002708287521272300248125C426AB270AE2
:10084F002876210023802409254826AA28772158B5
:10085F00223423A324892507262A2700287821005C
:10086F00220023A0260027092879210723802403AB
:10087F00253926AA270A287A21042300241C253883
:10088F00287B2107238024832539287C2103239566
:10089F002489250726022708287D21272300248164
:1008AF0025C426AB270A287E21002380240925484A
:1008BF0026AA287F2158223423A324892507262AF4
:1008CF0027002880210622002300248125C026939B
:1008DF0027012881210023802489254826AA270A59
:1008EF0028822002216622082300240025662883FF
:1008FF002000210022002380241F250228842106A6
:10090F002489250726DC270C2885210023AA26AA5F
:10091F00270A288623B626002708288723802486BF
:10092F00253B26AA270A288821052489250726DCA6
:10093F00270C2889210023AA26AA270A288A23B64A
:10094F0026002708288B23802486253B26AA270AE2
:10095F00288C2042217B220824892507288D2000FE
:10096F0021002200230024012582288E21052481C5
:10097F0025C226AB288F20032193220823832489A5
:10098F0025072626270D2890200021052200230069
:10099F00248125C026132701289121002380248933
:1009AF00254826AA270A28922002217E2208230002
:1009BF002400256628932000210022002380241F75
:1009CF002502289421052489250726DC270C289544
:1009DF00210023AA26AA270A289623B6260027082D
:1009EF00289723802486253B26AA270A28982105A5
:1009FF002489250726DC270C2899210023AA26AA5B
:100A0F00270A289A2380241F2502289B21012300CF
:100A1F00248125C226AB289C2003219322082383FF
:100A2F00248925072626270D289D20002104220032
:100A3F00239526122708289E216023C426AA27045F
:100A4F00289F210023C02600270928A0204221CB60
:100A5F002208238026AA270A28A12070215422B811
:0E0A6F0023952612270828A2200221CC220857
:100A7D00238026AA270A28A3200321CA220F238315
:100A8D002626270D28A42000210022002300248CD7
:100A9D00250C26AA270A28A521042482257828A614
:100AAD0021002380248925482612270428A7200306
:100ABD0021DE220F238325072626270D28A82000B7
:100ACD00210122002300249C257826AA270A28A983
:100ADD00210023802481254028AA200321CF220F25
:100AED002383248925072626270D28AB207021086E
:100AFD0022B8239526A0270428AC200321D4220F49
:100B0D0023832626270D28AD2127220B28AE207002
:100B1D00216322B823952612270828AF2000210132
:100B2D0022002380248625CB26AB270A28B020421D
:100B3D0021DD22082489250726AA28B120002118A5
:100B4D002280239526A4270028B2200321D9220F25
:100B5D0023832626270D28B32070210A22B823953A
:100B6D0026A0270028B4200221E02208238026AAEF
:100B7D00270A28B52070210A22B8239526A0270020
:100B8D0028B621542602270828B7200021182280D4
:100B9D0026A4270028B82100220023802480254880
:100BAD0026AA270A28B92070215E22B82395248908
:100BBD0025072612270828BA2000210022002380AD
:100BCD002409254B26AA270A28BB2070215F22B8AD
:100BDD002395248925072610270828BC20002100ED
:100BED0022002300241C258326AB270A28BD2003C1
:100BFD00213222092383248925072626270D28BE85
:100C0D0020002100220023002482258C26AB270AF8
:100C1D0028BF200321252209238324892507262681
:100C2D00270D28C0204221BC238026AA270A28C1CF
:100C3D002000210122002300240125C026AB28C25B
:100C4D002070210F22B823952489250726202700FF
:100C5D0028C3200321E3220F23832626270D28C432
:100C6D00200521002200238426B4270928C5200051
:100C7D00210323952614270828C621A623A4262A56
:100C8D00270528C7210023A02644270928C8211895
:100C9D00226D2380249E257B26AA270A28C920425F
:100CAD002113220B2489250728CA200021AE2200FA
:100CBD0023952624270028CB210022032380248777
:100CCD00257B26AA270A28CC20422116220B24890F
:100CDD00250728CD200021AE2200239526242700AC
:100CED0028CE20052100238426B4270928CF2003F0
:100CFD00210D220B23832626270D28D0200021002D
:100D0D002200230024802602270028D123802409D5
:100D1D002548261E28D22158223423332480250726
:100D2D00262A28D32100220023002680271028D42C
:100D3D0021102363262A270028D52100236026A809
:100D4D00271228D621AF224C230026C8270C28D7DE
:100D5D00210022002680270528D823802486253BC4
:100D6D00261E270028D92042211C220E2300248074
:100D7D00250728DA20002135222926C4270C28DB57
:100D8D002002211D220E261E270028DC2000217F97
:100D9D00223426C4270C28DD210022002390249F15
:100DAD0025042610270A28DE23002484250026800A
:100DBD00271028DF2106236324802507262A2700F4
:100DCD0028E021002380248926AA270A28E120056E
:100DDD00238426B4270928E22070216122B82395A7
:0E0DED002612270828E320002101220023807F
:100DFB00248625C326AB270A28E4204221CE220FC6
:100E0B002489250726AA28E52070215022B823958E
:100E1B002612270828E6200521002200238426B469
:100E2B00270928E72070216422B82395261227086A
:100E3B0028E82000210122002380248625C326AB2D
:100E4B00270A28E9204221D3220F2489250726AA25
:100E5B0028EA2070215122B823952612270828EB67
:100E6B00200521002200238426B4270928EC2070BA
:100E7B00216522B823952612270828ED2000210191
:100E8B0022002380248625C326AB270A28EE204286
:100E9B0021D8220F2489250726AA28EF207021525A
:100EAB0022B823952612270828F0200521002200BE
:100EBB00238426B4270928F12070216122B82395B9
:100ECB002602270828F220002101220023802486F5
:100EDB0025C326AB270A28F3204221DD220F2489C4
:100EEB00250726AA28F42070215022B82395260224
:100EFB00270828F5200521002200238426B4270982
:100F0B0028F6200021012380248625CB26AB270A37
:100F1B0028F7204221E1220F2489250726AA28F849
:100F2B002000210222002300248125C426AB28F9AE
:100F3B00210023802489254826AA28FA200523840A
:100F4B00250726B4270928FB2070214E22B82395AC
:100F5B002610270828FC200021002200238024864D
:100F6B0025C326AB270A28FD204221E7220F24891F
:100F7B00250726AA28FE200021BB22002395262028
:100F8B00270028FF20052100238426B427092A08DF
:100F9B001001FFFFFFFF3A00643A65BB083A09BB3B
:100FAB0050105267517705A11804540155210700C1
:100FBB00060C0B03501051005204610F645565551C
:080FCB0005A11804FFFFFFFF60
:101C0A00E4FF121C33C291D290E4FF121C33D2912A
:0F1C1A003091FDA29092022002037F00227F01F1
:011C29002298
:02172C008F2B01
:10172E00E4F535F536F537F538C200F539C201D294
:10173E0090D29120910302182920900302182912A9
:10174E001C66E52B25E0F535433501C290E4F536F0
:10175E00753708E4FF121C33C2911537AF37E535E4
:10176E00A807088002C313D8FC139201A201121C11
:10177E002FD2913091FDA2909200A200300101B3C0
:10178E005003753901E5376004E53960C6121C0A4D
:10179E00EF60037F0222E531D39400405EE539709D
:1017AE005A753708E4FF121C33C2911537D290E5F3
:1017BE003825E0F538E4FF121C33D2913091FDA2AA
:1017CE00909200A200E4334238E53770D7AB32AACC
:1017DE0033A934853682F583E5381214520536D591
:1017EE003104D2018002C201E4FF121C33C291A265
:1017FE0001121C2FD29120919D80FBE5396401606E
:10180E001AE4FF121C33C291C290E4FF121C33D2B1
:0D181E00913091FD7F01121C33D290AF3943
:01182B00229A
:091C2A00139201A2019290E4FF63
:101C3300308E03308FFDC28EEF700A758DFF758B6A
:061C4300C3C28FD28E2205
:101C660053890F438910C2AB758DFF758BC3C28F25
:031C7600D28E22E9
:1015F200E4F535F536F537F538C200F539C201D2D2
:1016020090D29120910302170A20900302170A1226
:101612001C66EF25E0F535C290E4F536753708E42F
:10162200FF121C33C2911537AF37E535A807088082
:1016320002C313D8FC121C2AD2913091FDA29092BF
:1016420000A200300101B35003753901E53760048F
:10165200E53960CB121C0AEF60037F0222E530D32A
:1016620094004044753708852F35E4FF121C33C2BD
:10167200911537AF37E535A807088002C313D8FCA8
:10168200121C2AD2913091FDA2909200A200300148
:1016920001B35003753901E5376004E53960CB12B7
:1016A2001C0AEF60037F0222E531D394004059E522
:1016B200397055753708AB32AA33A934853682F5AD
:1016C20083121425F535E4FF121C33C2911537AF8E
:1016D20037E535A807088002C313D8FC121C2AD2AA
:1016E200913091FDA2909200A200300101B350030B
:1016F200753901E5376004E53960CB1531053612DD
:101702001C0AEF60A37F0222E53964016019E4FF3D
:10171200121C33C291C290E4121C33D2913091FD5B
:091722007F01121C33D290AF3993
:01172B00229B
:101C490052656365697665642056616C7565203DEA
:0D1C59002025322E3262580A0D00030201D0
:1019B600E4F52478257C00FD7BFF7A1C7963FE7FA5
:1019C600031213FFE4752F01F52EF52DF52C753056
:1019D60001F531F5327533007534257F431215F262
:1019E600E4F52FF52EF52DF52CF530753103F5328E
:1019F6007533007534287F4312172C8F231524E581
:101A0600236004E52470BD7BFF7A1C794985282E66
:051A1600121035AF23A2
:011A1B0022A8
:08182C008F088B098A0A890B61
:10183400E4F511F512750F32AB09AA0AA90B85124A
:1018440082851183121425F50E0512E51270020526
:1018540011F582851183121425F50C0512E5127019
:10186400020511E4850E2FF52EF52DF52C753001AA
:10187400753101F53275330075340CAF081215F269
:101884008F10150FE5106004E50F70D7E4850E2F57
:10189400F52EF52DF52C753001753101F5327533C2
:1018A4000075340DAF0812172CE50EF46004E50F33
:0418B4007083AF107E
:0118B800220D
:03000000021C855A
:0C1C8500787FE4F6D8FD75813E021B213B
:10132F00E709F608DFFA8046E709F208DFFA803EA0
:10133F0088828C83E709F0A3DFFA8032E309F6088D
:10134F00DFFA8078E309F208DFFA807088828C83F5
:10135F00E309F0A3DFFA806489828A83E0A3F608A9
:10136F00DFFA805889828A83E0A3F208DFFA804C83
:10137F0080D280FA80C680D4806980F2803380105A
:10138F0080A680EA809A80A880DA80E280CA8033C3
:10139F0089828A83ECFAE493A3C8C582C8CCC5833B
:1013AF00CCF0A3C8C582C8CCC583CCDFE9DEE7800B
:1013BF000D89828A83E493A3F608DFF9ECFAA9F08A
:1013CF00EDFB2289828A83ECFAE0A3C8C582C8CCE0
:1013DF00C583CCF0A3C8C582C8CCC583CCDFEADEF9
:1013EF00E880DB89828A83E493A3F208DFF980CC5B
:1013FF0088F0EF60010E4E60C388F0ED2402B40454
:10140F000050B9F582EB2402B4040050AF232345FA
:06141F00822390137F738D
:10142500BB010CE58229F582E5833AF583E022507C
:1014350006E92582F8E622BBFE06E92582F8E222C6
:0D144500E58229F582E5833AF583E49322E0
:10145200F8BB010DE58229F582E5833AF583E8F0D0
:10146200225006E92582C8F622BBFE05E92582C87C
:02147200F22264
:10147400E88FF0A4CC8BF0A42CFCE98EF0A42CFC17
:101484008AF0EDA42CFCEA8EF0A4CDA8F08BF0A495
:101494002DCC3825F0FDE98FF0A42CCD35F0FCEBF4
:1014A4008EF0A4FEA9F0EB8FF0A4CFC5F02ECD39B9
:0F14B400FEE43CFCEAA42DCE35F0FDE43CFC2226
:1014C30075F008758200EF2FFFEE33FECD33CDCCE0
:1014D30033CCC58233C5829BED9AEC99E582984063
:1014E3000CF582EE9BFEED9AFDEC99FC0FD5F0D640
:1014F300E4CEFBE4CDFAE4CCF9A88222B800C1B96A
:101503000059BA002DEC8BF084CFCECDFCE5F0CBA7
:10151300F97818EF2FFFEE33FEED33FDEC33FCEBE0
:1015230033FB10D703994004EB99FB0FD8E5E4F99B
:10153300FA227818EF2FFFEE33FEED33FDEC33FC88
:10154300C933C910D7059BE99A4007EC9BFCE99A7C
:10155300F90FD8E0E4C9FAE4CCFB2275F010EF2FC1
:10156300FFEE33FEED33FDCC33CCC833C810D707C1
:101573009BEC9AE899400AED9BFDEC9AFCE899F8FC
:0E1583000FD5F0DAE4CDFBE4CCFAE4C8F9228F
:100FD300E53A242EF8E6053A22782B300702782EDC
:100FE300E475F0011215BC0215912000EB7F2ED29F
:100FF300008018EF540F2490D43440D4FF30040BF6
:10100300EF24BFB41A0050032461FFE53B600215CF
:101013003B053EE53E7002053D30070D782BE47538
:10102300F0011215BCEF0215AA021BBD7403D2070F
:101033008003E4C207F53A8B2B8A2C892DE4F53B18
:10104300F53DF53EE53B60077F2012100E80F575F8
:101053003CFFC201C200C202C203C205C206C208EB
:10106300120FDCFF700D3007057F0012101FAF3E1B
:10107300AE3D22B4255FC2D5C204120FDCFF24D0DB
:10108300B40A00501A75F00A783B30D50508B6FF4C
:101093000106C6A426F620D5047002D20380D92403
:1010A300CFB41A00EF5004C2E5D20402121FD201DA
:1010B30080C6D20080C0D20280BCD2D580BAD2050D
:1010C30080B47F2012100E2002077401B53B00404C
:1010D300F1120FD3FF12100E021047D208D206806E
:1010E30095120FD3FB120FD3FA120FD3F94A4B7099
:1010F3000679F07A127BFF20022EE53B602A7E0000
:101103008E8275830012142560060EEE653C70F026
:10111300C2D5EBC0E0EAC0E0E9C0E0EE121266D04F
:10112300E0F9D0E0FAD0E0FB121591FF60AAEBC022
:10113300E0EAC0E0E9C0E012100ED0E02401F9D0EB
:10114300E03400FAD0E0FBE53C0460DCD53CD98018
:10115300877BFF7A127962D202809C7910800279B0
:1011630008C206C2088008D2D5790A8004790AC267
:10117300D5E53C047002F53CE4FAFDFEFF120FD303
:10118300FC7B08200113120FD3FD7B1030000A12E1
:101193000FD3FE120FD3FF7B20EC3382D592D550B1
:1011A30013C3E43000069FFFE49EFEE42001039D89
:1011B300FDE49CFCE4CBF8C201EC700CCFCECDCCAB
:1011C300E824F8F870F38017C3EF33FFEE33FEED36
:1011D30033FDEC33FCEB33FB994002FB0FD8E9EB17
:1011E300300105F8D0E0C448B201C0E00AEC4D4E2E
:1011F3004F78207B0070C2EAB53C0040BCC0E012CF
:101203001268D0F0D0E0200104C4C0E0C4B201C031
:10121300F0120FF7D0F0D5F0EB0210471215CC10F7
:10122300E453115E5810B54C10B14211624F116A6C
:1012330044116A4910CA431170551154461154455B
:1012430011544713105010B92D10BD2E10E02B1060
:10125300C12310DE2012FE2A107948000010D83F67
:101263003F3F00790AA2D5200314300509B91002C3
:101273000404B9080104A2D5200602500104200287
:05128300689202B53B7A
:10128800005034C0E07F203003197F30A20272067C
:101298007205500F1212BFC202C206C205C2087FF1
:1012A80030800F300503E9C0E012100E300503D07E
:1012B800E0F9D0E0B53BCC3005177F30B9100C12FF
:1012C800100E7F583004077F788003B90803121086
:1012D8000E3002057F2D02100E7F202008F87F2B8C
:1012E8002006F322920280CF286E756C6C29002D9F
:1012F80050434958D201120FD33001F8C201783B4C
:1013080030D50108F6021079120FD32403B4050072
:101318004001E49012F793120FFF743A120FFFD2B4
:0713280003753B0402115E96
:10159100BB010689828A83E0225002E722BBFE0258
:0915A100E32289828A83E493228B
:1015AA00BB010689828A83F0225002F722BBFE0120
:0215BA00F3221A
:1015BC00FAE6FB0808E6F925F0F618E6CA3AF62230
:1015CC00D083D082F8E4937012740193700DA3A3AE
:1015DC0093F8740193F5828883E4737402936860C2
:0615EC00EFA3A3A380DFC2
:101BBD00EFB40A07740D121BC8740A309811A89956
:101BCD00B8130CC2983098FDA899C298B811F63088
:071BDD0099FDC299F5992260
:00000001FF
